{
  "contractName": "Fitbody",
  "abi": [
    {
      "constant": true,
      "inputs": [
        {
          "name": "",
          "type": "uint256"
        }
      ],
      "name": "members",
      "outputs": [
        {
          "name": "backMuscle",
          "type": "uint256"
        },
        {
          "name": "chestMuscle",
          "type": "uint256"
        },
        {
          "name": "armMuscle",
          "type": "uint256"
        },
        {
          "name": "legMuscle",
          "type": "uint256"
        },
        {
          "name": "vitality",
          "type": "uint256"
        },
        {
          "name": "name",
          "type": "string"
        },
        {
          "name": "sno",
          "type": "string"
        },
        {
          "name": "amount",
          "type": "uint256"
        },
        {
          "name": "LaststartRestTime",
          "type": "uint256"
        },
        {
          "name": "increaseRatio",
          "type": "uint256"
        },
        {
          "name": "state",
          "type": "uint256"
        }
      ],
      "payable": false,
      "stateMutability": "view",
      "type": "function"
    },
    {
      "constant": true,
      "inputs": [],
      "name": "owner",
      "outputs": [
        {
          "name": "",
          "type": "address"
        }
      ],
      "payable": false,
      "stateMutability": "view",
      "type": "function"
    },
    {
      "constant": true,
      "inputs": [],
      "name": "sub",
      "outputs": [
        {
          "name": "",
          "type": "string"
        }
      ],
      "payable": false,
      "stateMutability": "view",
      "type": "function"
    },
    {
      "constant": true,
      "inputs": [
        {
          "name": "",
          "type": "uint256"
        }
      ],
      "name": "bodyToOwner",
      "outputs": [
        {
          "name": "",
          "type": "address"
        }
      ],
      "payable": false,
      "stateMutability": "view",
      "type": "function"
    },
    {
      "constant": false,
      "inputs": [
        {
          "name": "newOwner",
          "type": "address"
        }
      ],
      "name": "transferOwnership",
      "outputs": [],
      "payable": false,
      "stateMutability": "nonpayable",
      "type": "function"
    },
    {
      "anonymous": false,
      "inputs": [
        {
          "indexed": true,
          "name": "previousOwner",
          "type": "address"
        },
        {
          "indexed": true,
          "name": "newOwner",
          "type": "address"
        }
      ],
      "name": "OwnershipTransferred",
      "type": "event"
    },
    {
      "constant": false,
      "inputs": [
        {
          "name": "_name",
          "type": "string"
        },
        {
          "name": "_sno",
          "type": "string"
        }
      ],
      "name": "creatMember",
      "outputs": [],
      "payable": true,
      "stateMutability": "payable",
      "type": "function"
    },
    {
      "constant": false,
      "inputs": [
        {
          "name": "_sub",
          "type": "string"
        }
      ],
      "name": "setsub",
      "outputs": [],
      "payable": true,
      "stateMutability": "payable",
      "type": "function"
    },
    {
      "constant": true,
      "inputs": [],
      "name": "getBodyCount",
      "outputs": [
        {
          "name": "",
          "type": "uint256"
        }
      ],
      "payable": false,
      "stateMutability": "view",
      "type": "function"
    },
    {
      "constant": true,
      "inputs": [],
      "name": "getsub",
      "outputs": [
        {
          "name": "",
          "type": "string"
        }
      ],
      "payable": false,
      "stateMutability": "view",
      "type": "function"
    },
    {
      "constant": false,
      "inputs": [
        {
          "name": "id",
          "type": "uint256"
        },
        {
          "name": "choice",
          "type": "uint256"
        }
      ],
      "name": "TrainBody",
      "outputs": [],
      "payable": false,
      "stateMutability": "nonpayable",
      "type": "function"
    },
    {
      "constant": false,
      "inputs": [
        {
          "name": "id",
          "type": "uint256"
        }
      ],
      "name": "RestBody",
      "outputs": [],
      "payable": false,
      "stateMutability": "nonpayable",
      "type": "function"
    },
    {
      "constant": false,
      "inputs": [
        {
          "name": "id",
          "type": "uint256"
        }
      ],
      "name": "IncreaseNutrition",
      "outputs": [],
      "payable": false,
      "stateMutability": "nonpayable",
      "type": "function"
    },
    {
      "constant": false,
      "inputs": [
        {
          "name": "id",
          "type": "uint256"
        }
      ],
      "name": "StudyKnowledge",
      "outputs": [],
      "payable": false,
      "stateMutability": "nonpayable",
      "type": "function"
    }
  ],
  "bytecode": "0x60806040526040805190810160405280600581526020017f6464646464000000000000000000000000000000000000000000000000000000815250600490805190602001906200005192919062000098565b50336000806101000a81548173ffffffffffffffffffffffffffffffffffffffff021916908373ffffffffffffffffffffffffffffffffffffffff16021790555062000147565b828054600181600116156101000203166002900490600052602060002090601f016020900481019282601f10620000db57805160ff19168380011785556200010c565b828001600101855582156200010c579182015b828111156200010b578251825591602001919060010190620000ee565b5b5090506200011b91906200011f565b5090565b6200014491905b808211156200014057600081600090555060010162000126565b5090565b90565b61144080620001576000396000f3fe6080604052600436106100c5576000357c0100000000000000000000000000000000000000000000000000000000900463ffffffff16806308fa2627146100ca5780630bd2aa29146101985780631342e4a2146101d3578063240a1cff1461024c578063361f09c2146102875780635daf08ca146102c25780638da5cb5b14610421578063a4cd6e6c14610478578063bff3091d14610508578063c54124be1461054d578063c8bf98c7146105dd578063d89edbaa14610658578063f2fde38b14610683575b600080fd5b610196600480360360408110156100e057600080fd5b81019080803590602001906401000000008111156100fd57600080fd5b82018360208201111561010f57600080fd5b8035906020019184600183028401116401000000008311171561013157600080fd5b90919293919293908035906020019064010000000081111561015257600080fd5b82018360208201111561016457600080fd5b8035906020019184600183028401116401000000008311171561018657600080fd5b90919293919293905050506106d4565b005b3480156101a457600080fd5b506101d1600480360360208110156101bb57600080fd5b8101908080359060200190929190505050610775565b005b61024a600480360360208110156101e957600080fd5b810190808035906020019064010000000081111561020657600080fd5b82018360208201111561021857600080fd5b8035906020019184600183028401116401000000008311171561023a57600080fd5b9091929391929390505050610879565b005b34801561025857600080fd5b506102856004803603602081101561026f57600080fd5b810190808035906020019092919050505061088f565b005b34801561029357600080fd5b506102c0600480360360208110156102aa57600080fd5b810190808035906020019092919050505061095a565b005b3480156102ce57600080fd5b506102fb600480360360208110156102e557600080fd5b8101908080359060200190929190505050610a25565b604051808c81526020018b81526020018a81526020018981526020018881526020018060200180602001878152602001868152602001858152602001848152602001838103835289818151815260200191508051906020019080838360005b8381101561037557808201518184015260208101905061035a565b50505050905090810190601f1680156103a25780820380516001836020036101000a031916815260200191505b50838103825288818151815260200191508051906020019080838360005b838110156103db5780820151818401526020810190506103c0565b50505050905090810190601f1680156104085780820380516001836020036101000a031916815260200191505b509d505050505050505050505050505060405180910390f35b34801561042d57600080fd5b50610436610bbe565b604051808273ffffffffffffffffffffffffffffffffffffffff1673ffffffffffffffffffffffffffffffffffffffff16815260200191505060405180910390f35b34801561048457600080fd5b5061048d610be3565b6040518080602001828103825283818151815260200191508051906020019080838360005b838110156104cd5780820151818401526020810190506104b2565b50505050905090810190601f1680156104fa5780820380516001836020036101000a031916815260200191505b509250505060405180910390f35b34801561051457600080fd5b5061054b6004803603604081101561052b57600080fd5b810190808035906020019092919080359060200190929190505050610c85565b005b34801561055957600080fd5b50610562610ebd565b6040518080602001828103825283818151815260200191508051906020019080838360005b838110156105a2578082015181840152602081019050610587565b50505050905090810190601f1680156105cf5780820380516001836020036101000a031916815260200191505b509250505060405180910390f35b3480156105e957600080fd5b506106166004803603602081101561060057600080fd5b8101908080359060200190929190505050610f5b565b604051808273ffffffffffffffffffffffffffffffffffffffff1673ffffffffffffffffffffffffffffffffffffffff16815260200191505060405180910390f35b34801561066457600080fd5b5061066d610f8e565b6040518082815260200191505060405180910390f35b34801561068f57600080fd5b506106d2600480360360208110156106a657600080fd5b81019080803573ffffffffffffffffffffffffffffffffffffffff169060200190929190505050610f9b565b005b61076f600180600180600a89898080601f016020809104026020016040519081016040528093929190818152602001838380828437600081840152601f19601f8201169050808301925050505050505088888080601f016020809104026020016040519081016040528093929190818152602001838380828437600081840152601f19601f82011690508083019250505050505050346110f0565b50505050565b6001600082815260200190815260200160002060009054906101000a900473ffffffffffffffffffffffffffffffffffffffff1673ffffffffffffffffffffffffffffffffffffffff163373ffffffffffffffffffffffffffffffffffffffff161415156107e257600080fd5b60006003828154811015156107f357fe5b90600052602060002090600b02019050600081600a0154141561081f57600181600a0181905550610875565b600060248260080154420381151561083357fe5b049050808260040160008282540192505081905550600a8260040154111561086057600a82600401819055505b428260080181905550600082600a0181905550505b5050565b81816004919061088a9291906112ef565b505050565b60006003828154811015156108a057fe5b90600052602060002090600b0201600a01541415156108be57600080fd5b6001600082815260200190815260200160002060009054906101000a900473ffffffffffffffffffffffffffffffffffffffff1673ffffffffffffffffffffffffffffffffffffffff163373ffffffffffffffffffffffffffffffffffffffff1614151561092b57600080fd5b600060038281548110151561093c57fe5b90600052602060002090600b02019050600281600901819055505050565b600060038281548110151561096b57fe5b90600052602060002090600b0201600a015414151561098957600080fd5b6001600082815260200190815260200160002060009054906101000a900473ffffffffffffffffffffffffffffffffffffffff1673ffffffffffffffffffffffffffffffffffffffff163373ffffffffffffffffffffffffffffffffffffffff161415156109f657600080fd5b6000600382815481101515610a0757fe5b90600052602060002090600b02019050600381600901819055505050565b600381815481101515610a3457fe5b90600052602060002090600b0201600091509050806000015490806001015490806002015490806003015490806004015490806005018054600181600116156101000203166002900480601f016020809104026020016040519081016040528092919081815260200182805460018160011615610100020316600290048015610afe5780601f10610ad357610100808354040283529160200191610afe565b820191906000526020600020905b815481529060010190602001808311610ae157829003601f168201915b505050505090806006018054600181600116156101000203166002900480601f016020809104026020016040519081016040528092919081815260200182805460018160011615610100020316600290048015610b9c5780601f10610b7157610100808354040283529160200191610b9c565b820191906000526020600020905b815481529060010190602001808311610b7f57829003601f168201915b50505050509080600701549080600801549080600901549080600a015490508b565b6000809054906101000a900473ffffffffffffffffffffffffffffffffffffffff1681565b606060048054600181600116156101000203166002900480601f016020809104026020016040519081016040528092919081815260200182805460018160011615610100020316600290048015610c7b5780601f10610c5057610100808354040283529160200191610c7b565b820191906000526020600020905b815481529060010190602001808311610c5e57829003601f168201915b5050505050905090565b6001600083815260200190815260200160002060009054906101000a900473ffffffffffffffffffffffffffffffffffffffff1673ffffffffffffffffffffffffffffffffffffffff163373ffffffffffffffffffffffffffffffffffffffff16141515610cf257600080fd5b6000600383815481101515610d0357fe5b90600052602060002090600b0201600a0154141515610d2157600080fd5b6001811480610d305750600281145b80610d3b5750600381145b80610d465750600481145b1515610d5157600080fd5b6000600383815481101515610d6257fe5b90600052602060002090600b020190506001821415610dc0576006816004015410151515610d8f57600080fd5b8060090154600102816000016000828254019250508190555060068160040160008282540392505081905550610eae565b6002821415610e0e576005816004015410151515610ddd57600080fd5b8060090154600102816001016000828254019250508190555060058160040160008282540392505081905550610ead565b6003821415610e5c576003816004015410151515610e2b57600080fd5b8060090154600102816002016000828254019250508190555060038160040160008282540392505081905550610eac565b6004821415610eaa576007816004015410151515610e7957600080fd5b8060090154600102816003016000828254019250508190555060078160040160008282540392505081905550610eab565b5b5b5b5b60018160090181905550505050565b60048054600181600116156101000203166002900480601f016020809104026020016040519081016040528092919081815260200182805460018160011615610100020316600290048015610f535780601f10610f2857610100808354040283529160200191610f53565b820191906000526020600020905b815481529060010190602001808311610f3657829003601f168201915b505050505081565b60016020528060005260406000206000915054906101000a900473ffffffffffffffffffffffffffffffffffffffff1681565b6000600380549050905090565b6000809054906101000a900473ffffffffffffffffffffffffffffffffffffffff1673ffffffffffffffffffffffffffffffffffffffff163373ffffffffffffffffffffffffffffffffffffffff16141515610ff657600080fd5b600073ffffffffffffffffffffffffffffffffffffffff168173ffffffffffffffffffffffffffffffffffffffff161415151561103257600080fd5b8073ffffffffffffffffffffffffffffffffffffffff166000809054906101000a900473ffffffffffffffffffffffffffffffffffffffff1673ffffffffffffffffffffffffffffffffffffffff167f8be0079c531659141344cd1fd0a4f28419497f9722a3daafe3b4186f6b6457e060405160405180910390a3806000806101000a81548173ffffffffffffffffffffffffffffffffffffffff021916908373ffffffffffffffffffffffffffffffffffffffff16021790555050565b600060016003610160604051908101604052808c81526020018b81526020018a81526020018981526020018881526020018781526020018681526020018581526020014281526020016001815260200160008152509080600181540180825580915050906001820390600052602060002090600b020160009091929091909150600082015181600001556020820151816001015560408201518160020155606082015181600301556080820151816004015560a08201518160050190805190602001906111be92919061136f565b5060c08201518160060190805190602001906111db92919061136f565b5060e082015181600701556101008201518160080155610120820151816009015561014082015181600a01555050039050336001600083815260200190815260200160002060006101000a81548173ffffffffffffffffffffffffffffffffffffffff021916908373ffffffffffffffffffffffffffffffffffffffff1602179055506001600260003373ffffffffffffffffffffffffffffffffffffffff1673ffffffffffffffffffffffffffffffffffffffff1681526020019081526020016000205401600260003373ffffffffffffffffffffffffffffffffffffffff1673ffffffffffffffffffffffffffffffffffffffff16815260200190815260200160002081905550505050505050505050565b828054600181600116156101000203166002900490600052602060002090601f016020900481019282601f1061133057803560ff191683800117855561135e565b8280016001018555821561135e579182015b8281111561135d578235825591602001919060010190611342565b5b50905061136b91906113ef565b5090565b828054600181600116156101000203166002900490600052602060002090601f016020900481019282601f106113b057805160ff19168380011785556113de565b828001600101855582156113de579182015b828111156113dd5782518255916020019190600101906113c2565b5b5090506113eb91906113ef565b5090565b61141191905b8082111561140d5760008160009055506001016113f5565b5090565b9056fea165627a7a723058209eab5034946beb7a94c6f73f13c51e19a038d8bc136f95de755be5a157ee390b0029",
  "source": "pragma solidity ^0.5.0;\n\nimport \"./Ownable.sol\";\n\n\ncontract Fitbody is Ownable {\n\n    //成员属性\n    struct member {\n        uint backMuscle;   //背部肌肉 6\n        uint chestMuscle;  //胸部肌肉 5\n        // uint shoulderMuscle ; //肩部肌肉 4\n        uint armMuscle; //手臂肌肉 3\n        // uint bellyMuscle; //腹部 2\n        uint legMuscle; //腿 7\n        uint vitality;//体力值  10\n        string name;\n        string sno;\n        uint256 amount;\n        uint256 LaststartRestTime;\n        uint increaseRatio;\n        uint state;\n\n    }\n\n\n    //所有者地址\n    mapping (uint256 => address) public bodyToOwner;\n    //当前账户下健身人的个数\n    mapping (address => uint256) internal ownerBodyCount;\n\n    //当前账户下的健身人数组\n    member[] public  members;\n    string public sub=\"ddddd\";\n\n\n    //创建健身人的私有构造函数\n    function _createMember(uint _backMuscle, uint _chestMuscle,uint _armMuscle, uint _legMuscle, uint _vitality, string memory _name, string memory _sno, uint256 _amount) private {\n        //require(msg.value >= 0.001 ether);\n\n        uint256 id = members.push(member( _backMuscle,  _chestMuscle,_armMuscle, _legMuscle,  _vitality, _name, _sno , _amount, now, 1, 0)) - 1;\n        bodyToOwner[id] = msg.sender;\n        ownerBodyCount[msg.sender] = ownerBodyCount[msg.sender] + 1;\n\n    }\n\n    //创建健身人\n    function creatMember(string  calldata _name,string  calldata _sno) payable external {\n\n        _createMember(1,1,1,1,10, _name, _sno, msg.value);\n    }\n    function setsub(string  calldata _sub) payable external {\n\n        sub=_sub;\n    }\n\n    function getBodyCount() external view returns(uint256) {\n        return members.length;\n    }\n    function getsub() external view returns(string memory) {\n        return sub;\n    }\n\n    //训练训练不同部位，使不同部位的肌肉量增加\n    function TrainBody (uint256 id, uint choice) external  {\n\n        require(msg.sender == bodyToOwner[id]);\n\n        require(members[id].state == 0);\n\n        require(choice == 1 || choice == 2 || choice == 3 || choice == 4);\n\n        member storage myMember = members[id];\n\n\n        if (choice == 1) {\n            require(myMember.vitality >= 6);\n            myMember.backMuscle += 1 * myMember.increaseRatio;\n            myMember.vitality -= 6;\n\n\n        } else  if (choice == 2) {\n            require(myMember.vitality >= 5);\n            myMember.chestMuscle += 1 * myMember.increaseRatio;\n            myMember.vitality -= 5;\n\n\n        } else  if (choice == 3) {\n            require(myMember.vitality >= 3);\n            myMember.armMuscle += 1 * myMember.increaseRatio;\n            myMember.vitality -= 3;\n\n        } else  if (choice == 4) {\n            require(myMember.vitality >= 7);\n            myMember.legMuscle += 1 * myMember.increaseRatio;\n            myMember.vitality -= 7;\n\n        } else {\n\n        }\n\n        myMember.increaseRatio = 1;\n\n    }\n\n    //休息时体力值恢复到最大，每小时恢复一点体力值\n    function RestBody (uint256 id) external {\n\n        require(msg.sender == bodyToOwner[id]);\n\n        member storage myMember = members[id];\n        //还没休息 就进入休息状态\n        if (myMember.state == 0) {\n\n            myMember.state = 1;\n        //否则表示休息完成 增加体力值\n        } else {\n            //计算经过的小时\n            uint restHour = (now - myMember.LaststartRestTime)/36;\n            //每小时增加一个体力\n            myMember.vitality += restHour;\n\n            if (myMember.vitality > 10){\n                myMember.vitality = 10;\n            }\n            //修改LaststartRestTime\n            myMember.LaststartRestTime = now;\n            //变成没休息的状态\n            myMember.state = 0;\n\n        }\n\n    }\n\n\n    //摄入充足营养会增加三倍效率\n    function IncreaseNutrition(uint256 id) external {\n        require(members[id].state == 0);\n\n        require(msg.sender == bodyToOwner[id]);\n\n        member storage myMember = members[id];\n\n        myMember.increaseRatio = 3;\n\n    }\n\n\n    //学习知识会增加两倍的效率\n    function StudyKnowledge(uint256 id) external {\n        require(members[id].state == 0);\n\n        require(msg.sender == bodyToOwner[id]);\n\n        member storage myMember = members[id];\n\n        myMember.increaseRatio = 2;\n    }\n\n}\n",
  "sourcePath": "F:/EthereumHealthFit-master/contracts/Fitbody.sol",
  "compiler": {
    "name": "solc",
    "version": "0.5.0+commit.1d4f565a.Emscripten.clang"
  },
  "schemaVersion": "3.0.6",
  "updatedAt": "2019-05-28T13:00:36.684Z",
  "devdoc": {
    "methods": {
      "transferOwnership(address)": {
        "details": "Allows the current owner to transfer control of the contract to a newOwner.",
        "params": {
          "newOwner": "The address to transfer ownership to."
        }
      }
    }
  },
  "userdoc": {
    "methods": {}
  }
}