{
  "contractName": "Fitbody",
  "abi": [
    {
      "constant": true,
      "inputs": [
        {
          "name": "",
          "type": "uint256"
        }
      ],
      "name": "members",
      "outputs": [
        {
          "name": "chidao",
          "type": "uint256"
        },
        {
          "name": "queqin",
          "type": "uint256"
        },
        {
          "name": "koufen",
          "type": "uint256"
        },
        {
          "name": "jiafen",
          "type": "uint256"
        },
        {
          "name": "zongfen",
          "type": "uint256"
        },
        {
          "name": "name",
          "type": "string"
        },
        {
          "name": "sno",
          "type": "string"
        },
        {
          "name": "amount",
          "type": "uint256"
        },
        {
          "name": "LaststartRestTime",
          "type": "uint256"
        },
        {
          "name": "increaseRatio",
          "type": "uint256"
        },
        {
          "name": "state",
          "type": "uint256"
        }
      ],
      "payable": false,
      "stateMutability": "view",
      "type": "function"
    },
    {
      "constant": true,
      "inputs": [],
      "name": "owner",
      "outputs": [
        {
          "name": "",
          "type": "address"
        }
      ],
      "payable": false,
      "stateMutability": "view",
      "type": "function"
    },
    {
      "constant": true,
      "inputs": [],
      "name": "sub",
      "outputs": [
        {
          "name": "",
          "type": "string"
        }
      ],
      "payable": false,
      "stateMutability": "view",
      "type": "function"
    },
    {
      "constant": true,
      "inputs": [
        {
          "name": "",
          "type": "uint256"
        }
      ],
      "name": "bodyToOwner",
      "outputs": [
        {
          "name": "",
          "type": "address"
        }
      ],
      "payable": false,
      "stateMutability": "view",
      "type": "function"
    },
    {
      "constant": false,
      "inputs": [
        {
          "name": "newOwner",
          "type": "address"
        }
      ],
      "name": "transferOwnership",
      "outputs": [],
      "payable": false,
      "stateMutability": "nonpayable",
      "type": "function"
    },
    {
      "anonymous": false,
      "inputs": [
        {
          "indexed": true,
          "name": "previousOwner",
          "type": "address"
        },
        {
          "indexed": true,
          "name": "newOwner",
          "type": "address"
        }
      ],
      "name": "OwnershipTransferred",
      "type": "event"
    },
    {
      "constant": false,
      "inputs": [
        {
          "name": "_name",
          "type": "string"
        },
        {
          "name": "_sno",
          "type": "string"
        }
      ],
      "name": "creatMember",
      "outputs": [],
      "payable": true,
      "stateMutability": "payable",
      "type": "function"
    },
    {
      "constant": false,
      "inputs": [
        {
          "name": "_sub",
          "type": "string"
        }
      ],
      "name": "setsub",
      "outputs": [],
      "payable": true,
      "stateMutability": "payable",
      "type": "function"
    },
    {
      "constant": true,
      "inputs": [],
      "name": "getBodyCount",
      "outputs": [
        {
          "name": "",
          "type": "uint256"
        }
      ],
      "payable": false,
      "stateMutability": "view",
      "type": "function"
    },
    {
      "constant": true,
      "inputs": [],
      "name": "getsub",
      "outputs": [
        {
          "name": "",
          "type": "string"
        }
      ],
      "payable": false,
      "stateMutability": "view",
      "type": "function"
    },
    {
      "constant": false,
      "inputs": [
        {
          "name": "id",
          "type": "uint256"
        },
        {
          "name": "choice",
          "type": "uint256"
        }
      ],
      "name": "TrainBody",
      "outputs": [],
      "payable": false,
      "stateMutability": "nonpayable",
      "type": "function"
    }
  ],
  "bytecode": "0x60806040526040805190810160405280600581526020017f64646464640000000000000000000000000000000000000000000000000000008152506004908051906020019061004f929190610095565b50336000806101000a81548173ffffffffffffffffffffffffffffffffffffffff021916908373ffffffffffffffffffffffffffffffffffffffff16021790555061013a565b828054600181600116156101000203166002900490600052602060002090601f016020900481019282601f106100d657805160ff1916838001178555610104565b82800160010185558215610104579182015b828111156101035782518255916020019190600101906100e8565b5b5090506101119190610115565b5090565b61013791905b8082111561013357600081600090555060010161011b565b5090565b90565b6110bc806101496000396000f3fe6080604052600436106100a4576000357c0100000000000000000000000000000000000000000000000000000000900463ffffffff16806308fa2627146100a95780631342e4a2146101775780635daf08ca146101f05780638da5cb5b1461034f578063a4cd6e6c146103a6578063bff3091d14610436578063c54124be1461047b578063c8bf98c71461050b578063d89edbaa14610586578063f2fde38b146105b1575b600080fd5b610175600480360360408110156100bf57600080fd5b81019080803590602001906401000000008111156100dc57600080fd5b8201836020820111156100ee57600080fd5b8035906020019184600183028401116401000000008311171561011057600080fd5b90919293919293908035906020019064010000000081111561013157600080fd5b82018360208201111561014357600080fd5b8035906020019184600183028401116401000000008311171561016557600080fd5b9091929391929390505050610602565b005b6101ee6004803603602081101561018d57600080fd5b81019080803590602001906401000000008111156101aa57600080fd5b8201836020820111156101bc57600080fd5b803590602001918460018302840111640100000000831117156101de57600080fd5b90919293919293905050506106a3565b005b3480156101fc57600080fd5b506102296004803603602081101561021357600080fd5b81019080803590602001909291905050506106b9565b604051808c81526020018b81526020018a81526020018981526020018881526020018060200180602001878152602001868152602001858152602001848152602001838103835289818151815260200191508051906020019080838360005b838110156102a3578082015181840152602081019050610288565b50505050905090810190601f1680156102d05780820380516001836020036101000a031916815260200191505b50838103825288818151815260200191508051906020019080838360005b838110156103095780820151818401526020810190506102ee565b50505050905090810190601f1680156103365780820380516001836020036101000a031916815260200191505b509d505050505050505050505050505060405180910390f35b34801561035b57600080fd5b50610364610852565b604051808273ffffffffffffffffffffffffffffffffffffffff1673ffffffffffffffffffffffffffffffffffffffff16815260200191505060405180910390f35b3480156103b257600080fd5b506103bb610877565b6040518080602001828103825283818151815260200191508051906020019080838360005b838110156103fb5780820151818401526020810190506103e0565b50505050905090810190601f1680156104285780820380516001836020036101000a031916815260200191505b509250505060405180910390f35b34801561044257600080fd5b506104796004803603604081101561045957600080fd5b810190808035906020019092919080359060200190929190505050610919565b005b34801561048757600080fd5b50610490610b39565b6040518080602001828103825283818151815260200191508051906020019080838360005b838110156104d05780820151818401526020810190506104b5565b50505050905090810190601f1680156104fd5780820380516001836020036101000a031916815260200191505b509250505060405180910390f35b34801561051757600080fd5b506105446004803603602081101561052e57600080fd5b8101908080359060200190929190505050610bd7565b604051808273ffffffffffffffffffffffffffffffffffffffff1673ffffffffffffffffffffffffffffffffffffffff16815260200191505060405180910390f35b34801561059257600080fd5b5061059b610c0a565b6040518082815260200191505060405180910390f35b3480156105bd57600080fd5b50610600600480360360208110156105d457600080fd5b81019080803573ffffffffffffffffffffffffffffffffffffffff169060200190929190505050610c17565b005b61069d600080600080606489898080601f016020809104026020016040519081016040528093929190818152602001838380828437600081840152601f19601f8201169050808301925050505050505088888080601f016020809104026020016040519081016040528093929190818152602001838380828437600081840152601f19601f8201169050808301925050505050505034610d6c565b50505050565b8181600491906106b4929190610f6b565b505050565b6003818154811015156106c857fe5b90600052602060002090600b0201600091509050806000015490806001015490806002015490806003015490806004015490806005018054600181600116156101000203166002900480601f0160208091040260200160405190810160405280929190818152602001828054600181600116156101000203166002900480156107925780601f1061076757610100808354040283529160200191610792565b820191906000526020600020905b81548152906001019060200180831161077557829003601f168201915b505050505090806006018054600181600116156101000203166002900480601f0160208091040260200160405190810160405280929190818152602001828054600181600116156101000203166002900480156108305780601f1061080557610100808354040283529160200191610830565b820191906000526020600020905b81548152906001019060200180831161081357829003601f168201915b50505050509080600701549080600801549080600901549080600a015490508b565b6000809054906101000a900473ffffffffffffffffffffffffffffffffffffffff1681565b606060048054600181600116156101000203166002900480601f01602080910402602001604051908101604052809291908181526020018280546001816001161561010002031660029004801561090f5780601f106108e45761010080835404028352916020019161090f565b820191906000526020600020905b8154815290600101906020018083116108f257829003601f168201915b5050505050905090565b6001600083815260200190815260200160002060009054906101000a900473ffffffffffffffffffffffffffffffffffffffff1673ffffffffffffffffffffffffffffffffffffffff163373ffffffffffffffffffffffffffffffffffffffff1614151561098657600080fd5b600060038381548110151561099757fe5b90600052602060002090600b0201600a01541415156109b557600080fd5b60018114806109c45750600281145b806109cf5750600381145b806109da5750600481145b15156109e557600080fd5b60006003838154811015156109f657fe5b90600052602060002090600b020190506001821415610a4e576005816004015410151515610a2357600080fd5b6001816000016000828254019250508190555060058160040160008282540392505081905550610b2a565b6002821415610a9657600a816004015410151515610a6b57600080fd5b60018160010160008282540192505081905550600a8160040160008282540392505081905550610b29565b6003821415610ade576005816004015410151515610ab357600080fd5b6001816002016000828254019250508190555060058160040160008282540392505081905550610b28565b6004821415610b26576000816004015410151515610afb57600080fd5b6001816003016000828254019250508190555060058160040160008282540192505081905550610b27565b5b5b5b5b60018160090181905550505050565b60048054600181600116156101000203166002900480601f016020809104026020016040519081016040528092919081815260200182805460018160011615610100020316600290048015610bcf5780601f10610ba457610100808354040283529160200191610bcf565b820191906000526020600020905b815481529060010190602001808311610bb257829003601f168201915b505050505081565b60016020528060005260406000206000915054906101000a900473ffffffffffffffffffffffffffffffffffffffff1681565b6000600380549050905090565b6000809054906101000a900473ffffffffffffffffffffffffffffffffffffffff1673ffffffffffffffffffffffffffffffffffffffff163373ffffffffffffffffffffffffffffffffffffffff16141515610c7257600080fd5b600073ffffffffffffffffffffffffffffffffffffffff168173ffffffffffffffffffffffffffffffffffffffff1614151515610cae57600080fd5b8073ffffffffffffffffffffffffffffffffffffffff166000809054906101000a900473ffffffffffffffffffffffffffffffffffffffff1673ffffffffffffffffffffffffffffffffffffffff167f8be0079c531659141344cd1fd0a4f28419497f9722a3daafe3b4186f6b6457e060405160405180910390a3806000806101000a81548173ffffffffffffffffffffffffffffffffffffffff021916908373ffffffffffffffffffffffffffffffffffffffff16021790555050565b600060016003610160604051908101604052808c81526020018b81526020018a81526020018981526020018881526020018781526020018681526020018581526020014281526020016001815260200160008152509080600181540180825580915050906001820390600052602060002090600b020160009091929091909150600082015181600001556020820151816001015560408201518160020155606082015181600301556080820151816004015560a0820151816005019080519060200190610e3a929190610feb565b5060c0820151816006019080519060200190610e57929190610feb565b5060e082015181600701556101008201518160080155610120820151816009015561014082015181600a01555050039050336001600083815260200190815260200160002060006101000a81548173ffffffffffffffffffffffffffffffffffffffff021916908373ffffffffffffffffffffffffffffffffffffffff1602179055506001600260003373ffffffffffffffffffffffffffffffffffffffff1673ffffffffffffffffffffffffffffffffffffffff1681526020019081526020016000205401600260003373ffffffffffffffffffffffffffffffffffffffff1673ffffffffffffffffffffffffffffffffffffffff16815260200190815260200160002081905550505050505050505050565b828054600181600116156101000203166002900490600052602060002090601f016020900481019282601f10610fac57803560ff1916838001178555610fda565b82800160010185558215610fda579182015b82811115610fd9578235825591602001919060010190610fbe565b5b509050610fe7919061106b565b5090565b828054600181600116156101000203166002900490600052602060002090601f016020900481019282601f1061102c57805160ff191683800117855561105a565b8280016001018555821561105a579182015b8281111561105957825182559160200191906001019061103e565b5b509050611067919061106b565b5090565b61108d91905b80821115611089576000816000905550600101611071565b5090565b9056fea165627a7a723058205da7a5b5feed6e72e1adb69b7b5f3cbac172fea56ad60c86e049551749f935ae0029",
  "source": "pragma solidity ^0.5.0;\n\nimport \"./Ownable.sol\";\n\n\ncontract Fitbody is Ownable {\n\n    //成员属性\n    struct member {\n      uint chidao;   //迟到 6\n      uint queqin;  //缺勤 5\n      uint koufen; //扣分 3\n      uint jiafen; //加分 7\n      uint zongfen;//总分  10\n      string name;//姓名\n      string sno;//学号\n      uint256 amount;\n      uint256 LaststartRestTime;\n      uint increaseRatio;\n      uint state;\n\n\n    }\n\n\n    //所有者地址\n    mapping (uint256 => address) public bodyToOwner;\n    //当前账户下健身人的个数\n    mapping (address => uint256) internal ownerBodyCount;\n\n    //当前账户下的学生数组\n    member[] public  members;\n    string public sub=\"ddddd\";\n\n\n    //创建学生的私有构造函数\n     function _createMember(uint _chidao, uint _queqin,uint _koufen, uint _jiafen, uint _zongfen, string memory _name, string memory _sno, uint256 _amount) private {\n         //require(msg.value >= 0.001 ether);\n\n         uint256 id = members.push(member( _chidao,  _queqin,_koufen, _jiafen,  _zongfen, _name, _sno , _amount, now, 1, 0)) - 1;\n         bodyToOwner[id] = msg.sender;\n         ownerBodyCount[msg.sender] = ownerBodyCount[msg.sender] + 1;\n\n     }\n\n     //创建学生\n     function creatMember(string  calldata _name,string  calldata _sno) payable external {\n\n         _createMember(0,0,0,0,100, _name, _sno, msg.value);\n     }\n    function setsub(string  calldata _sub) payable external {\n\n        sub=_sub;\n    }\n\n    function getBodyCount() external view returns(uint256) {\n        return members.length;\n    }\n    function getsub() external view returns(string memory) {\n        return sub;\n    }\n\n    //训练训练不同部位，使不同部位的肌肉量增加\n  function TrainBody (uint256 id, uint choice) external  {\n\n      require(msg.sender == bodyToOwner[id]);\n\n      require(members[id].state == 0);\n\n      require(choice == 1 || choice == 2 || choice == 3 || choice == 4);\n\n      member storage myMember = members[id];\n\n\n      if (choice == 1) {\n          require(myMember.zongfen >= 5);\n          myMember.chidao +=1;\n          myMember.zongfen -= 5;\n\n\n      } else  if (choice == 2) {\n          require(myMember.zongfen >= 10);\n          myMember.queqin +=1;\n          myMember.zongfen -= 10;\n\n\n      } else  if (choice == 3) {\n          require(myMember.zongfen >= 5);\n          myMember.koufen +=1;\n          myMember.zongfen -= 5;\n\n      } else  if (choice == 4) {\n          require(myMember.zongfen >= 0);\n          myMember.jiafen +=1;\n          myMember.zongfen += 5;\n\n      } else {\n\n      }\n\n      myMember.increaseRatio = 1;\n\n  }\n\n\n\n\n\n\n}\n",
  "sourcePath": "F:/EthereumHealthFit-master/contracts/Fitbody.sol",
  "compiler": {
    "name": "solc",
    "version": "0.5.0+commit.1d4f565a.Emscripten.clang"
  },
  "schemaVersion": "3.0.6",
  "updatedAt": "2019-05-29T05:01:18.791Z",
  "devdoc": {
    "methods": {
      "transferOwnership(address)": {
        "details": "Allows the current owner to transfer control of the contract to a newOwner.",
        "params": {
          "newOwner": "The address to transfer ownership to."
        }
      }
    }
  },
  "userdoc": {
    "methods": {}
  }
}