{
  "contractName": "Fitbody",
  "abi": [
    {
      "constant": true,
      "inputs": [
        {
          "name": "",
          "type": "uint256"
        }
      ],
      "name": "members",
      "outputs": [
        {
          "name": "chidao",
          "type": "uint256"
        },
        {
          "name": "queqin",
          "type": "uint256"
        },
        {
          "name": "koufen",
          "type": "uint256"
        },
        {
          "name": "jiafen",
          "type": "uint256"
        },
        {
          "name": "zongfen",
          "type": "uint256"
        },
        {
          "name": "name",
          "type": "string"
        },
        {
          "name": "sno",
          "type": "string"
        },
        {
          "name": "amount",
          "type": "uint256"
        },
        {
          "name": "lastjiafentime",
          "type": "uint256"
        },
        {
          "name": "lastkoufentime",
          "type": "uint256"
        },
        {
          "name": "increaseRatio",
          "type": "uint256"
        },
        {
          "name": "state",
          "type": "uint256"
        }
      ],
      "payable": false,
      "stateMutability": "view",
      "type": "function"
    },
    {
      "constant": true,
      "inputs": [],
      "name": "owner",
      "outputs": [
        {
          "name": "",
          "type": "address"
        }
      ],
      "payable": false,
      "stateMutability": "view",
      "type": "function"
    },
    {
      "constant": true,
      "inputs": [],
      "name": "sub",
      "outputs": [
        {
          "name": "",
          "type": "string"
        }
      ],
      "payable": false,
      "stateMutability": "view",
      "type": "function"
    },
    {
      "constant": true,
      "inputs": [
        {
          "name": "",
          "type": "uint256"
        }
      ],
      "name": "bodyToOwner",
      "outputs": [
        {
          "name": "",
          "type": "address"
        }
      ],
      "payable": false,
      "stateMutability": "view",
      "type": "function"
    },
    {
      "constant": false,
      "inputs": [
        {
          "name": "newOwner",
          "type": "address"
        }
      ],
      "name": "transferOwnership",
      "outputs": [],
      "payable": false,
      "stateMutability": "nonpayable",
      "type": "function"
    },
    {
      "anonymous": false,
      "inputs": [
        {
          "indexed": true,
          "name": "previousOwner",
          "type": "address"
        },
        {
          "indexed": true,
          "name": "newOwner",
          "type": "address"
        }
      ],
      "name": "OwnershipTransferred",
      "type": "event"
    },
    {
      "constant": false,
      "inputs": [
        {
          "name": "_name",
          "type": "string"
        },
        {
          "name": "_sno",
          "type": "string"
        }
      ],
      "name": "creatMember",
      "outputs": [],
      "payable": true,
      "stateMutability": "payable",
      "type": "function"
    },
    {
      "constant": false,
      "inputs": [
        {
          "name": "_sub",
          "type": "string"
        }
      ],
      "name": "setsub",
      "outputs": [],
      "payable": true,
      "stateMutability": "payable",
      "type": "function"
    },
    {
      "constant": true,
      "inputs": [],
      "name": "getBodyCount",
      "outputs": [
        {
          "name": "",
          "type": "uint256"
        }
      ],
      "payable": false,
      "stateMutability": "view",
      "type": "function"
    },
    {
      "constant": true,
      "inputs": [],
      "name": "getsub",
      "outputs": [
        {
          "name": "",
          "type": "string"
        }
      ],
      "payable": false,
      "stateMutability": "view",
      "type": "function"
    },
    {
      "constant": false,
      "inputs": [
        {
          "name": "id",
          "type": "uint256"
        },
        {
          "name": "choice",
          "type": "uint256"
        }
      ],
      "name": "TrainBody",
      "outputs": [],
      "payable": false,
      "stateMutability": "nonpayable",
      "type": "function"
    }
  ],
  "bytecode": "0x60806040526040805190810160405280600581526020017f64646464640000000000000000000000000000000000000000000000000000008152506004908051906020019061004f929190610095565b50336000806101000a81548173ffffffffffffffffffffffffffffffffffffffff021916908373ffffffffffffffffffffffffffffffffffffffff16021790555061013a565b828054600181600116156101000203166002900490600052602060002090601f016020900481019282601f106100d657805160ff1916838001178555610104565b82800160010185558215610104579182015b828111156101035782518255916020019190600101906100e8565b5b5090506101119190610115565b5090565b61013791905b8082111561013357600081600090555060010161011b565b5090565b90565b611132806200014a6000396000f3fe6080604052600436106100a4576000357c0100000000000000000000000000000000000000000000000000000000900463ffffffff16806308fa2627146100a95780631342e4a2146101775780635daf08ca146101f05780638da5cb5b14610356578063a4cd6e6c146103ad578063bff3091d1461043d578063c54124be14610482578063c8bf98c714610512578063d89edbaa1461058d578063f2fde38b146105b8575b600080fd5b610175600480360360408110156100bf57600080fd5b81019080803590602001906401000000008111156100dc57600080fd5b8201836020820111156100ee57600080fd5b8035906020019184600183028401116401000000008311171561011057600080fd5b90919293919293908035906020019064010000000081111561013157600080fd5b82018360208201111561014357600080fd5b8035906020019184600183028401116401000000008311171561016557600080fd5b9091929391929390505050610609565b005b6101ee6004803603602081101561018d57600080fd5b81019080803590602001906401000000008111156101aa57600080fd5b8201836020820111156101bc57600080fd5b803590602001918460018302840111640100000000831117156101de57600080fd5b90919293919293905050506106aa565b005b3480156101fc57600080fd5b506102296004803603602081101561021357600080fd5b81019080803590602001909291905050506106c0565b604051808d81526020018c81526020018b81526020018a8152602001898152602001806020018060200188815260200187815260200186815260200185815260200184815260200183810383528a818151815260200191508051906020019080838360005b838110156102a957808201518184015260208101905061028e565b50505050905090810190601f1680156102d65780820380516001836020036101000a031916815260200191505b50838103825289818151815260200191508051906020019080838360005b8381101561030f5780820151818401526020810190506102f4565b50505050905090810190601f16801561033c5780820380516001836020036101000a031916815260200191505b509e50505050505050505050505050505060405180910390f35b34801561036257600080fd5b5061036b61085f565b604051808273ffffffffffffffffffffffffffffffffffffffff1673ffffffffffffffffffffffffffffffffffffffff16815260200191505060405180910390f35b3480156103b957600080fd5b506103c2610884565b6040518080602001828103825283818151815260200191508051906020019080838360005b838110156104025780820151818401526020810190506103e7565b50505050905090810190601f16801561042f5780820380516001836020036101000a031916815260200191505b509250505060405180910390f35b34801561044957600080fd5b506104806004803603604081101561046057600080fd5b810190808035906020019092919080359060200190929190505050610926565b005b34801561048e57600080fd5b50610497610b9e565b6040518080602001828103825283818151815260200191508051906020019080838360005b838110156104d75780820151818401526020810190506104bc565b50505050905090810190601f1680156105045780820380516001836020036101000a031916815260200191505b509250505060405180910390f35b34801561051e57600080fd5b5061054b6004803603602081101561053557600080fd5b8101908080359060200190929190505050610c3c565b604051808273ffffffffffffffffffffffffffffffffffffffff1673ffffffffffffffffffffffffffffffffffffffff16815260200191505060405180910390f35b34801561059957600080fd5b506105a2610c6f565b6040518082815260200191505060405180910390f35b3480156105c457600080fd5b50610607600480360360208110156105db57600080fd5b81019080803573ffffffffffffffffffffffffffffffffffffffff169060200190929190505050610c7c565b005b6106a4600080600080606489898080601f016020809104026020016040519081016040528093929190818152602001838380828437600081840152601f19601f8201169050808301925050505050505088888080601f016020809104026020016040519081016040528093929190818152602001838380828437600081840152601f19601f8201169050808301925050505050505034610dd1565b50505050565b8181600491906106bb929190610fe1565b505050565b6003818154811015156106cf57fe5b90600052602060002090600c0201600091509050806000015490806001015490806002015490806003015490806004015490806005018054600181600116156101000203166002900480601f0160208091040260200160405190810160405280929190818152602001828054600181600116156101000203166002900480156107995780601f1061076e57610100808354040283529160200191610799565b820191906000526020600020905b81548152906001019060200180831161077c57829003601f168201915b505050505090806006018054600181600116156101000203166002900480601f0160208091040260200160405190810160405280929190818152602001828054600181600116156101000203166002900480156108375780601f1061080c57610100808354040283529160200191610837565b820191906000526020600020905b81548152906001019060200180831161081a57829003601f168201915b50505050509080600701549080600801549080600901549080600a01549080600b015490508c565b6000809054906101000a900473ffffffffffffffffffffffffffffffffffffffff1681565b606060048054600181600116156101000203166002900480601f01602080910402602001604051908101604052809291908181526020018280546001816001161561010002031660029004801561091c5780601f106108f15761010080835404028352916020019161091c565b820191906000526020600020905b8154815290600101906020018083116108ff57829003601f168201915b5050505050905090565b6001600083815260200190815260200160002060009054906101000a900473ffffffffffffffffffffffffffffffffffffffff1673ffffffffffffffffffffffffffffffffffffffff163373ffffffffffffffffffffffffffffffffffffffff1614151561099357600080fd5b60006003838154811015156109a457fe5b90600052602060002090600c0201600b01541415156109c257600080fd5b60018114806109d15750600281145b806109dc5750600381145b806109e75750600481145b15156109f257600080fd5b6000600383815481101515610a0357fe5b90600052602060002090600c020190506001821415610a5b576005816004015410151515610a3057600080fd5b6001816000016000828254019250508190555060058160040160008282540392505081905550610b8f565b6002821415610aa357600a816004015410151515610a7857600080fd5b60018160010160008282540192505081905550600a8160040160008282540392505081905550610b8e565b6003821415610b17576005816004015410151515610ac057600080fd5b60016106c082600901544203811515610ad557fe5b0410151515610ae357600080fd5b6001816002016000828254019250508190555060058160040160008282540392505081905550428160090181905550610b8d565b6004821415610b8b576000816004015410151515610b3457600080fd5b60016106c082600801544203811515610b4957fe5b0410151515610b5757600080fd5b6001816003016000828254019250508190555060058160040160008282540192505081905550428160080181905550610b8c565b5b5b5b5b600181600a0181905550505050565b60048054600181600116156101000203166002900480601f016020809104026020016040519081016040528092919081815260200182805460018160011615610100020316600290048015610c345780601f10610c0957610100808354040283529160200191610c34565b820191906000526020600020905b815481529060010190602001808311610c1757829003601f168201915b505050505081565b60016020528060005260406000206000915054906101000a900473ffffffffffffffffffffffffffffffffffffffff1681565b6000600380549050905090565b6000809054906101000a900473ffffffffffffffffffffffffffffffffffffffff1673ffffffffffffffffffffffffffffffffffffffff163373ffffffffffffffffffffffffffffffffffffffff16141515610cd757600080fd5b600073ffffffffffffffffffffffffffffffffffffffff168173ffffffffffffffffffffffffffffffffffffffff1614151515610d1357600080fd5b8073ffffffffffffffffffffffffffffffffffffffff166000809054906101000a900473ffffffffffffffffffffffffffffffffffffffff1673ffffffffffffffffffffffffffffffffffffffff167f8be0079c531659141344cd1fd0a4f28419497f9722a3daafe3b4186f6b6457e060405160405180910390a3806000806101000a81548173ffffffffffffffffffffffffffffffffffffffff021916908373ffffffffffffffffffffffffffffffffffffffff16021790555050565b600060016003610180604051908101604052808c81526020018b81526020018a81526020018981526020018881526020018781526020018681526020018581526020014281526020014281526020016001815260200160008152509080600181540180825580915050906001820390600052602060002090600c020160009091929091909150600082015181600001556020820151816001015560408201518160020155606082015181600301556080820151816004015560a0820151816005019080519060200190610ea5929190611061565b5060c0820151816006019080519060200190610ec2929190611061565b5060e082015181600701556101008201518160080155610120820151816009015561014082015181600a015561016082015181600b01555050039050336001600083815260200190815260200160002060006101000a81548173ffffffffffffffffffffffffffffffffffffffff021916908373ffffffffffffffffffffffffffffffffffffffff1602179055506001600260003373ffffffffffffffffffffffffffffffffffffffff1673ffffffffffffffffffffffffffffffffffffffff1681526020019081526020016000205401600260003373ffffffffffffffffffffffffffffffffffffffff1673ffffffffffffffffffffffffffffffffffffffff16815260200190815260200160002081905550505050505050505050565b828054600181600116156101000203166002900490600052602060002090601f016020900481019282601f1061102257803560ff1916838001178555611050565b82800160010185558215611050579182015b8281111561104f578235825591602001919060010190611034565b5b50905061105d91906110e1565b5090565b828054600181600116156101000203166002900490600052602060002090601f016020900481019282601f106110a257805160ff19168380011785556110d0565b828001600101855582156110d0579182015b828111156110cf5782518255916020019190600101906110b4565b5b5090506110dd91906110e1565b5090565b61110391905b808211156110ff5760008160009055506001016110e7565b5090565b9056fea165627a7a72305820cdebd8de3bbd7e1ba1bf25b5ea38f4c58fdda84026c4256115fbcd9adae779ee0029",
  "source": "pragma solidity ^0.5.0;\n\nimport \"./Ownable.sol\";\n\n\ncontract Fitbody is Ownable {\n\n    //成员属性\n    struct member {\n      uint chidao;   //迟到 6\n      uint queqin;  //缺勤 5\n      uint koufen; //扣分 3\n      uint jiafen; //加分 7\n      uint zongfen;//总分  10\n      string name;//姓名\n      string sno;//学号\n      uint256 amount;\n      uint256 lastjiafentime;\n      uint256 lastkoufentime;\n      uint increaseRatio;\n      uint state;\n\n\n    }\n\n\n    //所有者地址\n    mapping (uint256 => address) public bodyToOwner;\n    //当前账户下健身人的个数\n    mapping (address => uint256) internal ownerBodyCount;\n\n    //当前账户下的学生数组\n    member[] public  members;\n    string public sub=\"ddddd\";\n\n\n    //创建学生的私有构造函数\n     function _createMember(uint _chidao, uint _queqin,uint _koufen, uint _jiafen, uint _zongfen, string memory _name, string memory _sno, uint256 _amount) private {\n         //require(msg.value >= 0.001 ether);\n\n         uint256 id = members.push(member( _chidao,  _queqin,_koufen, _jiafen,  _zongfen, _name, _sno , _amount, now, now,1, 0)) - 1;\n         bodyToOwner[id] = msg.sender;\n         ownerBodyCount[msg.sender] = ownerBodyCount[msg.sender] + 1;\n\n     }\n\n     //创建学生\n     function creatMember(string  calldata _name,string  calldata _sno) payable external {\n\n         _createMember(0,0,0,0,100, _name, _sno, msg.value);\n     }\n    function setsub(string  calldata _sub) payable external {\n\n        sub=_sub;\n    }\n\n    function getBodyCount() external view returns(uint256) {\n        return members.length;\n    }\n    function getsub() external view returns(string memory) {\n        return sub;\n    }\n\n    //训练训练不同部位，使不同部位的肌肉量增加\n  function TrainBody (uint256 id, uint choice) external  {\n\n      require(msg.sender == bodyToOwner[id]);\n\n      require(members[id].state == 0);\n\n      require(choice == 1 || choice == 2 || choice == 3 || choice == 4);\n\n      member storage myMember = members[id];\n\n\n      if (choice == 1) {\n          require(myMember.zongfen >= 5);\n          myMember.chidao +=1;\n          myMember.zongfen -= 5;\n\n\n      } else  if (choice == 2) {\n          require(myMember.zongfen >= 10);\n          myMember.queqin +=1;\n          myMember.zongfen -= 10;\n\n\n      } else  if (choice == 3) {\n          require(myMember.zongfen >= 5);\n          require((now - myMember.lastkoufentime)/1728 >= 1);\n          myMember.koufen +=1;\n          myMember.zongfen -= 5;\n          myMember.lastkoufentime = now;\n\n      } else  if (choice == 4) {\n          require(myMember.zongfen >= 0);\n          require((now - myMember.lastjiafentime)/1728 >= 1);\n          myMember.jiafen +=1;\n          myMember.zongfen += 5;\n          myMember.lastjiafentime = now;\n\n      } else {\n\n      }\n\n      myMember.increaseRatio = 1;\n\n  }\n\n\n\n\n\n\n}\n",
  "sourcePath": "F:/EthereumHealthFit-master/contracts/Fitbody.sol",
  "compiler": {
    "name": "solc",
    "version": "0.5.0+commit.1d4f565a.Emscripten.clang"
  },
  "schemaVersion": "3.0.6",
  "updatedAt": "2019-05-29T05:44:48.966Z",
  "devdoc": {
    "methods": {
      "transferOwnership(address)": {
        "details": "Allows the current owner to transfer control of the contract to a newOwner.",
        "params": {
          "newOwner": "The address to transfer ownership to."
        }
      }
    }
  },
  "userdoc": {
    "methods": {}
  }
}